:030000000204D225
:03004300020100B7
:03010000020200F8
:0301040002021DD7
:0301100002023AAE
:030128000202636D
:03012C000202913B
:2004B600E4F5D0F5A8F5B8F591F5D8F5E8F5F8F587F586F5D0E58E54F8F58E22C2AF75818F
:2004D6007F1204B67A00DAFE1204FB12058F7A037B007C00DCFEDBFADAF6D2AF12053D7A70
:2004F6000CDAFE80FAE4907FAEF0907FACF0907FADF0907FD6E054F544084404F07A12DAA8
:20051600FE54FBF07B9D7A00DAFEDBFA75400074FF907FABF0907FA9F0907FAAF05391EF53
:2005360012037375410022907FD6E054F744024404F07540017A007B00A4DBFDDAF9907FAE
:20055600AB74FFF05391EFE030E4FCF0754002E030E1FCF0754003C2007401907FAEF09004
:200576007FDBE060FD754004D2E87405B540FD907FAEE0D2E1D2E4F022907FAF7401F09025
:200596007FA1E4F0907FDDE4D2E74409F0754100E4F530F531F532F533F53704F536754344
:1A05B600007542007538407539003000067538007539028538348539352240
:20020000C0D0C0E0C083C0821205D05391EF907FAB7401F0D082D083D0E0D0D032C0D0C0D9
:20022000E0C083C0825391EF907FAB7402F0120473D082D083D0E0D0D032C0D0C0E0C08244
:20024000C0835391EF907FAB7410F0753840753900C200E41203B3754003D083D082D0E044
:20026000D0D032C0D0C0E0C082C0835391EF907FA97404F075D018AA35AB34E5429003C36C
:200280001203D5907FB9EBF0D083D082D0E0D0D032C0D0C0E0C082C0835391EF907FAA74F5
:2002A00004F075D0187A00907FC9E0FBE5439003D21203D5907FC9F0D083D082D0E0D0D08C
:2002C00032B482047CFB800EB402047CFB8007C2E7D37001C322FDC0A8C2AF907FAC20E78B
:2002E00003907FADE05CF0907FD7ED330392E45417F04420F020E413907FC8E4F0907FC84C
:20030000E05402704D907FC9F080F2907FB8E054027007907FB9E4F080F1907FBAE0440240
:20032000F0907FB8E04402F0907FB8E4F0907FB8E05402701DE47E40907E00F0A3DEFCAA04
:2003400035AB34E5429003C31203D5907FB9EBF080DBED20E70B907FAAECF4F0907FAD8060
:2003600009907FA9ECF4F0907FACE0F45CF4F0D0A8C322E4907FE0F0907FE1F004907FDE2C
:20038000F0907FDFF022F541C0A8C2AF70067173C3D0A82212044F7405907FDEF0740590E3
:2003A0007FDFF0740251C14007748251C14001C3D0A822C3700475400422718640F8754084
:2003C00005C3220203D90203DA0203FA02041C02043202044CF828287322907E0074012546
:2003E00030C530F0A3E43531C531F0A3E43532C532F0A3E43533C533F022907FD8E0FD90F3
:200400007FD9E0FE907FD8E06D70F27C00907E00ECF0A3EDF0A3EEF0A3E4F022E536600590
:20042000FC145C60027C01EC03F53630E003E4FAFB22AB36AA37EBC39401F5364A700785D3
:20044000343685353722EA9400F5372222D322907FF0E4F024807A07A3F0DAFC907FF8F0E4
:2004600024807A07A3F0DAFC7401907FE1F0907FE0F02275D010E541700122907FA2E020D9
:20048000E021907FA0E020E01A907F71E0FA907F70E0FB4A600D0BBA00011B907F60E0DA3D
:1604A000FDDBFB7A007B020BBA00011B907F68E4F0DAFDDBFB2281
:200A000012011001FF00FF40F0FFF0FF01000102030109023700010100A03209040000006B
:200A2000FF0000000904000104FF01000007058202400000070502024000000705880100F0
:200A4000020107050801000201040300001A034D0061007200740069006E0020004400691F
:200A600000650068006C0012035500530042002D00540065007300740016033200300030C6
:0F0A80000034002D00300033002D003000350011
:2005D000C0F0C09275D00875927F78E8E2FA5460FB08E2CBB40034740DD39B402EEB232B18
:2005F0009005F47302065202069C02063D0206B802063D02063D0206ED02073202073502F2
:2006100007510207660207800207A2BA400ABB5B1C12085450218015BAC012BB5C07120861
:200630004B50148008BBB00512044D500A907FB47401F074038005907FB47402F0D092D0C7
:20065000F02278EEE2640270E408E270E0BA8008C2E0A20192E18025BA8103E4801FBA82A0
:20067000CC78ECE2B48205907FB8800EB40205907FC88006C2E770B58003E05401907F001B
:20069000F0A3E4F0907FB57402F080AB08E2BA0007B40199C201809FBA0292B4008F080812
:2006B000E21202C14087808F08E2BA0008B40122D201020647BA021AB400170808E2B4822F
:2006D00005907FB88006B40209907FC87401F002064702063D0A490A4D0A670A79BA803F12
:2006F00008E2FC08E2B40105900A008022B40208BC002C900A128017B403247404D39C4039
:200710001EEC23F99006E593C90493F582898375927F78D4E583F278D5E582F2020647028F
:20073000063D02063DBA80167900E540B4050109907F00E9F0907FB57401F0020647020608
:200750003DBA000F08E26003B401081203B3400302064702063DBA8114E540B4050F907F8F
:2007700000E541F0907FB57401F002064702063DBA011CE540B4051708E2FFC39402500F29
:200790000808E2CFBF0008120386400302064702063D02063D0808080808E2F54408E2F5E8
:2007B000454544C3600EE5449401E545940054FC6002D322907FE47400F0907FE3740CF04E
:2007D000907FE575927FC32278B4E220E3FCE5444545602C79C5F3E220E3FCE3601CFAE50E
:2007F00044C39AF544E5459400F545401579C01592E3F009DAFB059280D4E5444545700221
:20081000C322D32278B4E220E2FCE544C39440F544E5459400F545744050022544FB60081F
:20083000FA7900E0F309DAFB79B5EBF3E220E2FCBB4006E544454570D1C3221207A54003BD
:0D085000120814221207A540031207D82237
:00000001FF
